:100000000C94B6400C9492420C9492420C949242FE
:100010000C9492420C9492420C9492420C94924210
:100020000C9492420C9492420C9492420C94924200
:100030000C9492420C9492420C9492420C949242F0
:100040000C9492420C9492420C9492420C949242E0
:100050000C9492420C9492420C9492420C949242D0
:100060000C9492420C9492420C9492420C949242C0
:100070000C9492420C9492420C9492420C949242B0
:100080000C9492420C9492420C9492420C949242A0
:100090000C9492420C9492420C9492420C94924290
:1000A0000C9492420C9492420C9492420C94924280
:1000B0000C9492420C9492420C9492420C94924270
:1000C0000C9492420C9492420C9492420C94924260
:1000D0000C9492420C9492420C9492420C94924250
:1000E0000C9492420C9492420C9492420C94924240
:1000F0000C9492420C9492420C9492420C94924230
:100100000C9492420C9492420C9492420C9492421F
:100110000C9492420C9492420C9492420C9492420F
:100120000C9492420C9492420C9492420C949242FF
:100130000C9492420C9492420C9492420C949242EF
:100140000C9492420C9492420C9492420C949242DF
:100150000C9492420C9492420C9492420C949242CF
:100160000C9492420C9492420C94924211241FBE21
:10017000CFEFCDBFDFE2DEBF22E2A0E0B0E201C000
:100180001D92A130B207E1F70E94C8400C94EA43E7
:10019000CDB7DEB72697CDBFDEBF809178008C70DB
:1001A00011F00E947643809178008F7731F488EDCA
:1001B00091E084BF90937900FFCF81E08093620645
:1001C00088E1809370062FEF33EC49E021503040F6
:1001D0004040E1F700C000008091680680FD0E9469
:1001E000764382E0809361068093660680E2809386
:1001F00041068093450683EC809352008091500025
:100200008860809350008091510083FFFCCF82EC86
:1002100080935500809150008061809350008091C0
:10022000510084FFFCCF88ED84BF1092400084BF52
:1002300084E080934000809150008E7F8093500036
:1002400088E0809345068093410683E88093A60862
:1002500080ED8093A70883E28093A5088091A4088D
:1002600088608093A4088091A40880618093A4088A
:100270008091A10887FD31C05FEF83EC99E0515078
:1002800080409040E1F700C0000080E28093460685
:1002900000E010E021E0C22E22E2D22EBB24BA946C
:1002A00032E0A32E81E090E2EE24E394E80E1B31CD
:1002B00009F47BC0F8F41B3009F46FC088F41130E6
:1002C00071F11A3009F44DC00E949B43082F8F37FB
:1002D00031F589E70E949443EACF8091A008C8CF06
:1002E0001C3091F781E00E94944384E00E94944383
:1002F00082E150C01B3309F483C01D3409F4D6C019
:100300001B3211F7CE0101960E94A243882301F10E
:1003100089E70E949443E981FA81099520C0802FE2
:10032000082F0E949B43902F9095981313C0013281
:1003300029F050F4033010F0013151F489E70E94A4
:1003400094431AE0100FB3CF0133C1F30334B1F378
:100350008FE103C08F3721F789E70E94944310E0B3
:10036000B3CF87E00E94944380E10E94944380E0F1
:100370000E94944381E00E94944382E00E9494434F
:1003800081E10E94944381E20E94944381E30E94B0
:10039000944383E40E949443DFCF80E10E9494431E
:1003A00080E00E94944380E0F5CFCE0101960E9448
:1003B000A243882369F289E70E9494430E949B43E9
:1003C000182F0E949B4380958113C2CF89E70E941A
:1003D000944389819A819C012F5F3F4F29833A83FF
:1003E0009C0150E040E02B833C834D835E83CA0137
:1003F000B9010E9494420E949443115050F7AFCF2C
:10040000CE0101960E94A243882309F4A1CF89E777
:100410000E949443E1E0F0E2B192CE16DF06E1F7EC
:100420000E949B43F82E09811A8111270F5F1F4DEF
:10043000982E0E949B43F80180830F5F1F4FF82680
:100440009A943FEF9312F5CF0E949B43F81280CF0E
:1004500089819A8188279C0150E040E02B833C836E
:100460004D835E8320E041E050E26B817C818D8191
:100470009E810E94CD4329813A81C9019927222377
:1004800009F46ACFA092070693959C0150E040E0E2
:100490002B833C834D835E8320E041E051E26B81FE
:1004A0007C818D819E810E94CD4356CF0E949B43CB
:1004B000082F182F8F3F71F40E949B43182F811132
:1004C00008C00E94BF420E94224389E70E949443D1
:1004D000FBCE1FEFF12E91E0892E90E2992E0E9423
:1004E0009B43F40180833FEF831A930A1827FA9401
:1004F0004FEFF412F4CF0E949B43181329CF81E0F1
:10050000882E80E2982EF40180815FEF851A950A8B
:100510000E944943882309F41FCF8E2D8819800F2C
:1005200091F71ACF0C9400403BB78BBFFB0186912B
:100530003BBF08953BB78BBFFB01879196913BBFB3
:10054000089542E097C041E095C08093C00188279C
:100550008093C1018093C20147E07CD0CB01089514
:100560008093C40148E076C08091D00108953BB7E4
:1005700048E10C943F433BB74AE10C943F433BB7FF
:10058000882799278BBF40E20C943F433BB78BBF32
:10059000CB0142E20C943F433BB70B0143E20C9486
:1005A0003F43EE27FF2719BEDC0143E24093CA0117
:1005B00050E82DE90D901D9020933400E895329677
:1005C0005A95C1F7112408953BB76BBFFA0119BEC4
:1005D000DC0140E04093CA0150E0879197918D93F0
:1005E0009D935A95D1F73BBF08953BB78BBFCB0185
:1005F00044E20C943F433BB78BBFCB0145E20C94E4
:100600003F433BB746E20C943F433BB78BBFCB0124
:100610004AE20C943F433BB78BBFCB014CE20C94B6
:100620003F433BB78BBFCB014DE20C943F4348E3C4
:1006300011C049E30FC028ED2093340021E020933E
:10064000CC0108952091CF0127FDFCCF22272093D4
:10065000CA0108954093CA0128ED31E02093340087
:100660003093CB016091C4017091C5018091C601A6
:1006700099270895FC014093CA0184910895FC01D3
:100680004093CA012DE920933400E89511243BBF23
:100690000895CF92DF92EF92FF92CF93C82ED12C84
:1006A00024E0829FC00111248D379105ECF4DC2CED
:1006B000CC24DD0CDD0C0D2C000CEE08FF08C4E092
:1006C000C701B6010E94C6420E942243C1508FEF6B
:1006D000D81AE80AF80AC111F3CF81E0CF91FF9050
:1006E000EF90DF90CF90089580E0F8CF80E2809384
:1006F000460680934206109270068091A408877F78
:100700008093A4088091A4088F7E8093A40888E039
:1007100080934206F0E0E0E084918F3F21F082E098
:1007200080936506099408959091A10895FFFCCFE8
:100730008093A00808958091A10887FFFCCF809145
:10074000A00808950F931F93CF938C010E949B43A1
:10075000C82F0E949B43C8270E949B43282F30E04C
:10076000F80120833183C8270E949B4320E0F801D1
:100770003081282B20833183C8270E949B43C813D4
:100780000AC0F80181818095881F8827881FCF9132
:100790001F910F91089580E0FACFFF920F931F935E
:1007A000CF93DF938B01D82FC92FCA01F22E0E945D
:1007B000D142B8018D2F9C2FFF2049F00E94FB42AF
:1007C000DF91CF911F910F91FF900C9422430E94D3
:0807D000F542F6CFF894FFCFCB
:00000001FF
