:100000000C94B6400C94C8400C94C8400C94C84062
:100010000C94C8400C94C8400C94C8400C94C84040
:100020000C94C8400C94C8400C94C8400C94C84030
:100030000C94C8400C94C8400C94C8400C94C84020
:100040000C94C8400C94C8400C94C8400C94C84010
:100050000C94C8400C94C8400C94C8400C94C84000
:100060000C94C8400C94C8400C94C8400C94C840F0
:100070000C94C8400C94C8400C94C8400C94C840E0
:100080000C94C8400C94C8400C94C8400C94C840D0
:100090000C94C8400C94C8400C94C8400C94C840C0
:1000A0000C94C8400C94C8400C94C8400C94C840B0
:1000B0000C94C8400C94C8400C94C8400C94C840A0
:1000C0000C94C8400C94C8400C94C8400C94C84090
:1000D0000C94C8400C94C8400C94C8400C94C84080
:1000E0000C94C8400C94C8400C94C8400C94C84070
:1000F0000C94C8400C94C8400C94C8400C94C84060
:100100000C94C8400C94C8400C94C8400C94C8404F
:100110000C94C8400C94C8400C94C8400C94C8403F
:100120000C94C8400C94C8400C94C8400C94C8402F
:100130000C94C8400C94C8400C94C8400C94C8401F
:100140000C94C8400C94C8400C94C8400C94C8400F
:100150000C94C8400C94C8400C94C8400C94C840FF
:100160000C94C8400C94C8400C94C84011241FBE85
:10017000CFEFCDBFDFE2DEBF22E2A0E0B0E201C000
:100180001D92A130B207E1F70E9435420C941D4444
:100190000C9400403BB78BBFFB0186913BBF089599
:1001A0003BB78BBFFB01879196913BBF089542E01F
:1001B00097C041E095C08093C00188278093C1011A
:1001C0008093C20147E07CD0CB0108958093C401A5
:1001D00048E076C08091D00108953BB748E10C9487
:1001E00075413BB74AE10C9475413BB78827992785
:1001F0008BBF40E20C9475413BB78BBFCB0142E211
:100200000C9475413BB70B0143E20C947541EE270A
:10021000FF2719BEDC0143E24093CA0150E82DE9F3
:100220000D901D9020933400E89532965A95C1F7B1
:10023000112408953BB76BBFFA0119BEDC0140E001
:100240004093CA0150E0879197918D939D935A9561
:10025000D1F73BBF08953BB78BBFCB0144E20C9471
:1002600075413BB78BBFCB0145E20C9475413BB761
:1002700046E20C9475413BB78BBFCB014AE20C942C
:1002800075413BB78BBFCB014CE20C9475413BB73A
:100290008BBFCB014DE20C94754148E311C049E39B
:1002A0000FC028ED2093340021E02093CC01089565
:1002B0002091CF0127FDFCCF22272093CA0108956A
:1002C0004093CA0128ED31E0209334003093CB01F4
:1002D0006091C4017091C5018091C601992708956C
:1002E000FC014093CA0184910895FC014093CA0126
:1002F0002DE920933400E89511243BBF0895CF9257
:10030000DF92EF92FF92CF93C82ED12C24E0829FF0
:10031000C00111248D379105ECF4DC2CCC24DD0CCC
:10032000DD0C0D2C000CEE08FF08C4E0C701B6017F
:100330000E94FC400E945841C1508FEFD81AE80A31
:10034000F80AC111F3CF81E0CF91FF90EF90DF90D9
:10035000CF90089580E0F8CF80E2809346068093A6
:100360004206109270068091A408877F8093A408AB
:100370008091A4088F7E8093A40888E08093420631
:10038000F0E0E0E084918F3F21F082E08093650609
:1003900009940895EF92FF920F931F93CF93DF93E9
:1003A000CDB7DEB72697CDBFDEBF9C016D837E83C0
:1003B0000D811E81040F151FED81FE81E017F107ED
:1003C00051F42696CDBFDEBFDF91CF911F910F91E3
:1003D000FF90EF90089579018FEFE81AF80AB0E0E6
:1003E000A0E0B901CD010E94CA40AD81BE818D93CC
:1003F000AD83BE839701E0CF9091A10895FFFCCF1C
:100400008093A00808958091A10887FFFCCF809178
:10041000A00808950F931F93CF938C010E9403426D
:10042000C82F0E940342C8270E940342282F30E0B1
:10043000F80120833183C8270E94034220E0F8019D
:100440003081282B20833183C8270E940342C813A0
:100450000AC0F80181818095881F8827881FCF9165
:100460001F910F91089580E0FACFCDB7DEB72697A0
:10047000CDBFDEBF809178008C7011F00E94AC413E
:10048000809178008F7731F488ED91E084BF90936C
:100490007900FFCF81E08093620688E18093700647
:1004A0002FEF33EC49E0215030404040E1F700C0ED
:1004B00000008091680680FD0E94AC4182E080933C
:1004C00061068093660680E280934106809345062C
:1004D00083EC80935200809150008860809350009C
:1004E0008091510083FFFCCF82EC80935500809176
:1004F00050008061809350008091510084FFFCCFB8
:1005000088ED84BF1092400084BF84E08093400057
:10051000809150008E7F8093500088E08093450644
:100520008093410683E88093A60880ED8093A70816
:1005300083E28093A5088091A40888608093A40832
:100540008091A40880618093A4088091A10887FD10
:1005500031C05FEF83EC99E0515080409040E1F76B
:1005600000C0000080E28093460600E010E031E029
:10057000E32E32E2F32EBB24BA9442E0A42E81E0B3
:1005800090E2CC24C394C80E1B3109F47BC0F8F46C
:100590001B3009F46FC088F4113071F11A3009F47E
:1005A0004DC00E940342082F8F3731F589E70E9422
:1005B000FC41EACF8091A008C8CF1C3091F781E0C0
:1005C0000E94FC4184E00E94FC4182E150C01B3348
:1005D00009F484C01D3409F4D7C01B3211F7CE01D1
:1005E00001960E940A42882301F189E70E94FC419A
:1005F000E981FA81099520C0802F082F0E940342CB
:10060000902F9095981313C0013229F050F40330C5
:1006100010F0013151F489E70E94FC411AE0100FFB
:10062000B3CF0133C1F30334B1F38FE103C08F378C
:1006300021F789E70E94FC4110E0B3CF87E00E94D8
:10064000FC4180E10E94FC4180E00E94FC4181E08D
:100650000E94FC4182E00E94FC4181E10E94FC4139
:1006600081E20E94FC4181E30E94FC4183E40E94FC
:10067000FC41DFCF80E10E94FC4180E00E94FC4110
:1006800080E0F5CFCE0101960E940A42882369F2EC
:1006900089E70E94FC410E940342182F0E940342F6
:1006A00080958113C2CF89E70E94FC41412F50E021
:1006B0004F5F5F4F61E070E289819A810E94CA4179
:1006C00021E0822E20E2922EF40180812FEF821A07
:1006D000920A0E94FC411150B8F7AECFCE010196AC
:1006E0000E940A42882309F4A0CF89E70E94FC41B6
:1006F000E1E0F0E2B192EE16FF06E1F70E9403425C
:10070000D82E09811A8111270F5F1F4D982E0E9444
:100710000342F80180830F5F1F4FD8269A943FEF62
:100720009312F5CF0E940342D8127FCF89819A811C
:1007300088279C0150E040E02B833C834D835E83FF
:1007400020E041E050E26B817C818D819E810E949E
:10075000004429813A81C9019927222309F469CFEC
:10076000A092070693959C0150E040E02B833C83C8
:100770004D835E8320E041E051E26B817C818D817D
:100780009E810E94004455CF0E940342082F182FDB
:100790008F3F71F40E940342182F811108C00E94FC
:1007A000F5400E94584189E70E94FC41FACE1FEFB4
:1007B000D12E91E0892E90E2992E0E940342F401FD
:1007C00080833FEF831A930A1827DA944FEFD412ED
:1007D000F4CF0E940342181328CF81E0882E80E2D4
:1007E000982EF40180815FEF851A950A0E947F415F
:1007F000882309F41ECF8C2D8819800F91F719CF0B
:10080000FF920F931F93CF93DF938B01D82FC92FA4
:10081000CA01F22E0E940741B8018D2F9C2FFF20A4
:1008200049F00E943141DF91CF911F910F91FF90CC
:0E0830000C9458410E942B41F6CFF894FFCF54
:00000001FF
