:10000000CDB7DEB72697CDBFDEBF8091780080FFE9
:100010000E948A4281E08093620688E180937006A4
:100020002FEF33EC49E0215030404040E1F700C071
:1000300000008091680680FD0E948A4282E08093E1
:1000400061068093660680E28093410680934506B0
:10005000809150008260809350008091510081FF18
:10006000FCCF88ED91E084BF9093400088E08093BE
:1000700045068093410683E88093A60880ED80932F
:10008000A70883E28093A5088091A40888608093E4
:10009000A4088091A40880618093A4088091A1089D
:1000A00087FD31C05FEF83EC99E051508040904074
:1000B000E1F700C0000080E28093460600E010E017
:1000C00021E0C22E22E2D22EBB24BA9432E0A32E2B
:1000D00081E090E2EE24E394E80E1B3109F47BC04A
:1000E000F8F41B3009F46FC088F4113071F11A3044
:1000F00009F44DC00E94B442082F8F3731F589E7CB
:100100000E94AD42EACF8091A008C8CF1C3091F781
:1001100081E00E94AD4284E00E94AD4282E150C085
:100120001B3309F483C01D3409F4D6C01B3211F708
:10013000CE0101960E94BB42882301F189E70E940B
:10014000AD42E981FA81099520C0802F082F0E94D5
:10015000B442902F9095981313C0013229F050F4B7
:10016000033010F0013151F489E70E94AD421AE0EA
:10017000100FB3CF0133C1F30334B1F38FE103C0E8
:100180008F3721F789E70E94AD4210E0B3CF87E0B7
:100190000E94AD4280E10E94AD4280E00E94AD42EB
:1001A00081E00E94AD4282E00E94AD4281E10E9466
:1001B000AD4281E20E94AD4281E30E94AD4283E400
:1001C0000E94AD42DFCF80E10E94AD4280E00E94FC
:1001D000AD4280E0F5CFCE0101960E94BB4288235C
:1001E00069F289E70E94AD420E94B442182F0E9432
:1001F000B44280958113C2CF89E70E94AD428981C4
:100200009A819C012F5F3F4F29833A839C0150E0E4
:1002100040E02B833C834D835E83CA01B9010E9479
:10022000A8410E94AD42115050F7AFCFCE010196C8
:100230000E94BB42882309F4A1CF89E70E94AD4206
:10024000E1E0F0E2B192CE16DF06E1F70E94B4429F
:10025000F82E09811A8111270F5F1F4D982E0E94D9
:10026000B442F80180830F5F1F4FF8269A943FEF46
:100270009312F5CF0E94B442F81280CF89819A81FF
:1002800088279C0150E040E02B833C834D835E83B4
:1002900020E041E050E26B817C818D819E810E9453
:1002A000E64229813A81C9019927222309F46ACFBC
:1002B000A092070693959C0150E040E02B833C837D
:1002C0004D835E8320E041E051E26B817C818D8132
:1002D0009E810E94E64256CF0E94B442082F182FFA
:1002E0008F3F71F40E94B442182F811108C00E9400
:1002F000D3410E94364289E70E94AD42FBCE1FEFF8
:10030000F12E91E0892E90E2992E0E94B442F401E0
:1003100080833FEF831A930A1827FA944FEFF41261
:10032000F4CF0E94B442181329CF81E0882E80E2D6
:10033000982EF40180815FEF851A950A0E945D4234
:10034000882309F41FCF8E2D8819800F91F71ACFBB
:100350003BB78BBFFB0186913BBF08953BB78BBF7B
:10036000FB01879196913BBF089542E097C041E021
:1003700095C08093C00188278093C1018093C201FA
:1003800047E07CD0CB0108958093C40148E076C05B
:100390008091D00108953BB748E10C9453423BB79C
:1003A0004AE10C9453423BB7882799278BBF40E220
:1003B0000C9453423BB78BBFCB0142E20C945342A7
:1003C0003BB70B0143E20C945342EE27FF2719BEC3
:1003D000DC0143E24093CA0150E82DE90D901D90E5
:1003E00020933400E89532965A95C1F71124089568
:1003F0003BB76BBFFA0119BEDC0140E04093CA0174
:1004000050E0879197918D939D935A95D1F73BBF7B
:1004100008953BB78BBFCB0144E20C9453423BB7EA
:100420008BBFCB0145E20C9453423BB746E20C94A0
:1004300053423BB78BBFCB014AE20C9453423BB7CC
:100440008BBFCB014CE20C9453423BB78BBFCB012B
:100450004DE20C94534248E311C049E30FC028ED2C
:100460002093340021E02093CC0108952091CF0106
:1004700027FDFCCF22272093CA0108954093CA018B
:1004800028ED31E0209334003093CB016091C4011A
:100490007091C5018091C60199270895FC01409390
:1004A000CA0184910895FC014093CA012DE920936B
:1004B0003400E89511243BBF0895CF92DF92EF926C
:1004C000FF92CF93C82ED12C24E0829FC00111242B
:1004D0008D379105ECF4DC2CCC24DD0CDD0C0D2CDF
:1004E000000CEE08FF08C4E0C701B6010E94DA4123
:1004F0000E943642C1508FEFD81AE80AF80AC1119B
:10050000F3CF81E0CF91FF90EF90DF90CF900895EF
:1005100080E0F8CFF0E0E0E084918F3FE9F080E206
:100520008093460680934206109270068091A4083C
:10053000877F8093A4088091A4088F7E8093A4086D
:1005400088E08093420682E080936506809178007F
:10055000816080937800099408959091A10895FF97
:10056000FCCF8093A00808958091A10887FFFCCF5D
:100570008091A00808950F931F93CF938C010E9440
:10058000B442C82F0E94B442C8270E94B442282F08
:1005900030E0F80120833183C8270E94B44220E074
:1005A000F8013081282B20833183C8270E94B44270
:1005B000C8130AC0F80181818095881F8827881F89
:1005C000CF911F910F91089580E0FACFFF920F9382
:1005D0001F93CF93DF938B01D82FC92FCA01F22E1F
:1005E0000E94E541B8018D2F9C2FFF2049F00E9409
:1005F0000F42DF91CF911F910F91FF900C943642E3
:060600000E940942F6CF42
:00000001FF
